:020000040800F2
:100000000004002083020008D1070008D30700087D
:10001000D7070008DB070008DF0700080000000022
:10002000000000000000000000000000E3070008DE
:10003000E507000800000000E7070008E9070008DE
:10004000A3020008A3020008A3020008A3020008FC
:10005000A3020008A3020008A3020008A3020008EC
:10006000A3020008A3020008A3020008A3020008DC
:10007000A3020008A3020008A3020008A3020008CC
:10008000A3020008A3020008A3020008A3020008BC
:10009000A3020008A3020008A3020008A3020008AC
:1000A000A3020008A3020008A3020008A30200089C
:1000B000A3020008A3020008A3020008A30200088C
:1000C000A3020008A3020008A3020008A30200087C
:1000D000A3020008DD060008430700080F07000818
:1000E000A3020008A3020008A3020008A30200085C
:1000F000A3020008A3020008A3020008A30200084C
:10010000A3020008A3020008A3020008A30200083B
:10011000A3020008A3020008A3020008A30200082B
:10012000A3020008A3020008A3020008A30200081B
:10013000DFF80CD001F00EF9004800476303000817
:10014000880400200CB50020019000904848006809
:1001500040F480304649086000BF4548006800F41C
:10016000003000900198401C0190009818B9019847
:10017000B0F5A06FF1D13E48006800F4003010B136
:100180000120009001E0002000900098012844D157
:100190003848006840F0100036490860084600689A
:1001A00020F0030008600846006840F00200086084
:1001B0002F4840682E494860084640684860084615
:1001C000406840F4806048600846406820F47C1035
:1001D00048600846406840F4881048600846006857
:1001E00040F08070086000BF2148006800F0007097
:1001F0000028F9D01E48406820F003001C494860E0
:100200000846406840F00200486000BF1848406857
:1002100000F00C000828F9D101E000BFFEE70CBD9A
:1002200010B5FFF78FFF10BD10B51148006840F002
:1002300001000F490860084640680F4908400C4912
:100240004860084600680D490840094908600846AA
:10025000006820F4802008600846406820F4FE0012
:1002600048604FF41F008860FFF7DAFF10BD000000
:1002700000100240002002400000FFF8FFFFF6FEE1
:10028000704708488047084981F3088807480047B5
:10029000FEE7FEE7FEE7FEE7FEE7FEE7FEE7FEE736
:1002A000FEE7FEE781020008880400203101000813
:1002B000002109E0002201E0531C9AB242F6140327
:1002C0009A42F9DB4B1C99B28142F3DB704708B5C7
:1002D0000121702000F004FE4FF4E040ADF8000072
:1002E00010208DF8030003208DF802006946714844
:1002F00000F04AFB08BD08B500214FF0006000F097
:10030000ACFA4FF4A06000F071FA25208DF80000DF
:1003100000208DF801008DF8020001208DF8030007
:10032000684600F068FA26208DF8000000208DF85D
:10033000010001208DF802008DF80300684600F0EE
:100340005AFA27208DF8000000208DF801000220C5
:100350008DF8020001208DF80300684600F04BFA8A
:1003600008BD0024FFF760FFFFF7C5FFFFF7AFFFF1
:1003700000F016F94FF4E1314F4800F08EF94FF4D8
:10038000E1314E4800F089F94FF4E1314C4800F07A
:1003900084F94C4800F0F0FF4BA000F0EDFF17E0AF
:1003A0005348007858B1002404E05249085D00F039
:1003B000E9F8641C0A2CF8DB00204D4908704E480F
:1003C0000068C0434D49C1F8B001C820FFF770FF75
:1003D000E6E708B51F20ADF8000048208DF80300BF
:1003E0006946474800F0D0FA08BD00B54548007896
:1003F000002835D04448006878B14348001D0068A3
:1004000058B141480830006838B13F480C300068A6
:1004100018B13D481030006810BB0A20FFF748FFB4
:100420000020384908703848006808B9022000BD2B
:100430003548001D006808B90320F8E73248083045
:10044000006808B90420F2E72F480C30006808B9AA
:100450000520ECE72C4810300068D8B90620E6E704
:1004600029480068012815D12748001D0068012887
:1004700010D125480830006801280BD122480C30E3
:100480000068012806D1204810300068012801D1F9
:100490001C4908700020CAE7002107E0002201E0A3
:1004A000531C9AB2092AFBDB4B1C99B28142F5DB43
:1004B0007047000000140140003801400044004033
:1004C00000480040C8130008C7EBB7A2CBCDD7D671
:1004D000B7FBA3ACB4AEBFDABDABBDD3CAD5B5C410
:1004E000D7D4D7D6B7FBB7B5BBD8200A0D000000CC
:1004F0000800002020000020B0812242008022421B
:10050000001001400000002000012242014600BF0F
:10051000704770B504460D4600BF80219F4800F02B
:10052000BFFE0028F9D0A1B29C4800F062FE204630
:1005300070BD10B5044600BF8021984800F0B0FEA1
:100540000028F9D02146954800F053FE10BD10B5A3
:1005500000BF2021914800F0A3FE0028F9D08F4869
:1005600000F04BFEC0B210BD10B5044600BF8021A4
:100570008B4800F095FE0028F9D02146884800F00D
:1005800038FE10BD10B5044600BF8021854800F03C
:1005900087FE0028F9D02146824800F02AFE10BDCF
:1005A00008B57E4800F004FD012144F2090000F086
:1005B00097FC0121880300F093FC0121042000F046
:1005C000B4FA4020ADF8000018208DF80300032095
:1005D0008DF802006946744800F0D6F98020ADF825
:1005E000000004208DF8030069466F4800F0CCF944
:1005F0000121112000F074FC0121880400F07DFC31
:1006000001216A4800F091FA4FF48060ADF80000D3
:1006100018208DF8030003208DF802006946644815
:1006200000F0B2F94FF40060ADF8000004208DF83E
:10063000030069465E4800F0A7F90121052000F09B
:100640004FFC0121480400F058FC0420ADF80000E4
:1006500018208DF8030003208DF8020069465548E4
:1006600000F092F90820ADF8000004208DF8030096
:100670006946504800F088F90220ADF800001020CB
:100680008DF8030003208DF802006946494800F008
:100690007BF901204849086008BD7FB505460C4636
:1006A00000940020ADF80400ADF80600ADF8080095
:1006B000ADF80C000C20ADF80A006946284600F0A1
:1006C000BAFC012240F22551284600F031FD00BF5E
:1006D00000BF0121284600F01FFD7FBD10B52F4847
:1006E000008800F0200088B134480068C0433449D5
:1006F000C1F8B4012948001D0088C4B240F2255158
:10070000264800F00DFE2046FFF713FF10BD10B580
:100710002348008800F0200090B128480830006885
:10072000C0432749C1F8BC011D48001D0088C4B260
:1007300040F225511A4800F0F3FD2046FFF714FF60
:1007400010BD10B51748008800F0200020B31B48EA
:10075000001D0068C0431A49C1F8B8011148001DC6
:100760000088C4B240F225510E4800F0D9FD15486A
:10077000007838B9144801780078401C124A10708B
:100780001248445410480078092805DD01200D491D
:10079000087000200C49087010BD000000380140AE
:1007A0000048004000440040000C014010001400CC
:1007B000001001400008014084012142B48122421E
:1007C00000802242080000200900002020000020B4
:1007D000704700BFFEE700BFFEE700BFFEE700BFB7
:1007E000FEE770477047704770470000314901438A
:1007F000314A1160704770B5002100230F22C47880
:1008000004B32D4C246804F4E064C4F5E064210AC8
:10081000C1F10403CA40447804FA03F18478144017
:1008200021430901254C0678A155047804F01F05E1
:100830000124AC4005786D11AD0005F1E025C5F847
:10084000004109E0047804F01F050124AC401C4D70
:100850000678761145F8264070BD1A4A0A400243D0
:10086000154B1B1F1A60704739B1134A121D1268CD
:100870000243114B1B1D1A6006E00F4A121D12683D
:1008800082430D4B1B1D1A607047042808D14FF09E
:10089000E021096941F004014FF0E022116107E015
:1008A0004FF0E021096921F004014FF0E0221161CD
:1008B000704700000000FA050CED00E000E400E0E5
:1008C00080E100E080FFFF1F10B50446C448844269
:1008D00008D10121042000F01DFB0021042000F0BC
:1008E00019FB46E0BF48844208D10121082000F0EE
:1008F00011FB0021082000F00DFB3AE0BA488442C9
:1009000008D10121102000F005FB0021102000F08B
:1009100001FB2EE0B548844208D10121202000F0DF
:10092000F9FA0021202000F0F5FA22E0B0488442D4
:1009300008D10121402000F0EDFA0021402000F014
:10094000E9FA16E0AB48844208D10121802000F08A
:10095000E1FA0021802000F0DDFA0AE0A648844296
:1009600007D10121801500F0D5FA0021A01500F073
:10097000D1FA10BD10B50121084600F0CBFA0021D4
:10098000012000F0C7FA10BD2DE9F0410246002514
:100990000026002000230024002791F803C00CF05B
:1009A0000F0591F803C00CF0100CBCF1000F03D040
:1009B00091F802C04CEA050591F800C0BCF1000FA7
:1009C00031D0146800202BE04FF0010C0CFA00F33A
:1009D000B1F800C00CEA03069E4220D183004FF01C
:1009E0000F0C0CFA03F7BC4305FA03FC4CEA0404B1
:1009F00091F803C0BCF1280F06D14FF0010C0CFA9E
:100A000000FCC2F814C00AE091F803C0BCF1480F22
:100A100005D14FF0010C0CFA00FCC2F810C0401CCC
:100A20000828D1D31460B1F800C0BCF1FF0F34DD49
:100A3000546800202EE000F1080C4FF0010808FA7D
:100A40000CF3B1F800C00CEA03069E4221D18300EA
:100A50004FF00F0C0CFA03F7BC4305FA03FC4CEA09
:100A6000040491F803C0BCF1280F05D100F1080C73
:100A700008FA0CF8C2F8148091F803C0BCF1480FD2
:100A800007D100F1080C4FF0010808FA0CF8C2F881
:100A90001080401C0828CED35460BDE8F0814FF68A
:100AA000FF710180022181700421C17070470246EC
:100AB000002093680B400BB1012000E0002070473C
:100AC0000146886880B2704702460020D3680B4018
:100AD0000BB1012000E0002070470146C86880B2D9
:100AE000704701617047416170470AB1016100E0E0
:100AF00041617047C16070474FF480320A438261A0
:100B000081618261826982697047024600203B4BA5
:100B100018684FF68073184040EA02100843374BBC
:100B2000186070473649C8617047F0B50A4600231F
:100B3000002400210025314E7168C0F3034583B2C3
:100B400000F44016B6F5401F08D121F070612B4E1D
:100B5000766826F07066294F7E6012E000F48016F9
:100B6000B6F5801F06D1032606FA05F4A14341F02D
:100B7000706106E0460D360103FA06F6B14341F016
:100B8000706122B1460D360103FA06F631431B4E61
:100B90007160F0BD30B500228B071C0F0F2303FAE4
:100BA00004F2164B08338C1053F824309343134C43
:100BB00008348D1044F8253023468C1053F8243027
:100BC0008C07240F00FA04F423430C4C08348D10D6
:100BD00044F8253030BD0A49DC3108607047000018
:100BE00000080140000C01400010014000140140C9
:100BF00000180140001C014000200140000001409D
:100C000000002042DF48006840F00100DD49086034
:100C100008464068DC490840DA49486008460068F0
:100C2000DA490840D74908600846006820F4802067
:100C300008600846406820F4FE0048604FF41F003A
:100C400088607047CF49096821F48031CD4A11602E
:100C50001146096821F480211160B0F5803F03D06E
:100C6000B0F5802F0ED106E0C649096841F4803105
:100C7000C44A116007E0C349096841F4A021C14A90
:100C8000116000E000BF00BF704710B501460022B0
:100C9000002300204A11012A02D1BA4C236806E041
:100CA000022A02D1B74C236A01E0B64C636A01F014
:100CB0001F02012494401C400CB1012000E00020E0
:100CC00010BD38B5002000900024002500BF312061
:100CD000FFF7DBFF05460098401C00900098B0F538
:100CE000A06F01D0002DF2D03120FFF7CEFF08B168
:100CF000012400E00024204638BD01460020A14A1E
:100D0000106820F0F80040EAC10010607047A04968
:100D100008607047024600209A4B586820F47C1007
:100D200042EA01031843974B586070479849086698
:100D3000704701460020934A506820F003000843A2
:100D4000506070478F48406800F00C0070470146C3
:100D500000208C4A506820F0F00008435060704733
:100D600001460020874A506820F4E0600843506044
:100D7000704701460020834A506820F4605040EAE2
:100D8000C1005060704729B17E4A527A02437D4BC0
:100D90005A7204E07B4A527A82437A4B5A72704705
:100DA0007B49D8310860704701460020754A506879
:100DB00020F440400843506070470021714A2032BF
:100DC0001170704A82F82010012802D004280AD13C
:100DD00004E001216B4A2032117005E00521694AC7
:100DE0002032117000E000BF00BF70476949086001
:100DF00070476449096A0143624A11627047654954
:100E000044390860704730B50021002200240023D7
:100E10005C4D6D6805F00C0121B1042905D008294D
:100E200023D105E05C4D056022E05C4D05601FE0CC
:100E3000544D6D6805F47012524D6D6805F48034A0
:100E4000022505EB92421CB9554D554305600BE058
:100E50004C4D6D6805F400351DB1524D554305608C
:100E600002E04E4D5543056002E04B4D056000BF6A
:100E700000BF444D6D6805F0F00109094A4D6B5CF7
:100E80000568DD4045603F4D6D6805F4E061090A85
:100E9000454D6B5C4568DD4085603A4D6D6805F4F5
:100EA0006051C90A404D6B5C4568DD40C560354DF9
:100EB0006D6805F44041890B3C4D6B5CC568B5FB22
:100EC000F3F5056130BD29B12E4A526902432D4B1D
:100ED0005A6104E02B4A526982432A4B5A61704797
:100EE00029B1284A92690243264B9A6104E0254AB7
:100EF00092698243234B9A61704729B1214AD26992
:100F00000243204BDA6104E01E4AD26982431D4B42
:100F1000DA61704729B11B4AD2680243194BDA6083
:100F200004E0184AD2688243164BDA60704729B150
:100F3000144A12690243134B1A6104E0114A126900
:100F40008243104B1A61704712494039086070475C
:100F50000F49C86470470B49C87170470948406A17
:100F600040F0807007494862704701460020054AFA
:100F700092680A400AB1012000E000207047014950
:100F800088727047001002400000FFF8FFFFF6FE75
:100F9000000042428004424200127A00001BB70067
:100FA00000093D00808D5B000A0000201A0000202F
:100FB00010B50446E248844209D101218803FFF7B5
:100FC000A9FF00214FF48040FFF7A4FF32E0DD4885
:100FD000844209D101214804FFF7A9FF00214FF401
:100FE0000030FFF7A4FF25E0D748844209D1012152
:100FF0008804FFF79CFF00214FF48020FFF797FF44
:1010000018E0D248844209D10121C804FFF78FFFBC
:1010100000214FF40020FFF78AFF0BE0CC48844208
:1010200008D101210805FFF782FF00214FF480104D
:10103000FFF77DFF10BD2DE9F04786B005460E464F
:101040000024A24600BF00BF0027B08900B100BF46
:101050002F462C8A4CF6FF700440F08804432C8203
:10106000AC894EF6F3100440B08831890843718989
:1010700008430443AC81AC8A4FF6FF400440B0897A
:101080000443AC8201A8FFF7BEFEAD48874202D1FF
:10109000DDF810A001E0DDF80CA00AEBCA0000EBBF
:1010A0000A1031688900B0FBF1F86420B8FBF0F059
:1010B00004012009642101FB1089322000EB091092
:1010C000B0FBF1F000F00F0004432C8106B0BDE846
:1010D000F0874FF41651016000218180C1800181A9
:1010E0000C21418100218181704710B5024600200A
:1010F000108A4FF2FF0318400B884C8823438C88DA
:101100002343CC8823431843108210BD0021018063
:1011100041808180C180704721B1828942F40052B0
:10112000828104E082894DF6FF731A408281704704
:10113000F0B50346002400260025002040F66A177B
:10114000B94200D100BF1846C1F3421401F01F0696
:10115000012707FA06F5012C01D10C3004E0022C1E
:1011600001D1103000E014301AB107682F43076036
:1011700002E00768AF430760F0BD1AB1838A0B43F2
:10118000838202E0838A8B4383827047028A4FF610
:10119000F0731A400282028A0A43028270478289EF
:1011A0004FF2FF731A40828182890A43828170471D
:1011B00021B1828942F00202828104E082894FF6E5
:1011C000FD731A4082817047028A4FF6DF731A401E
:1011D0000282028A0A430282704721B1028A42F4E3
:1011E0008042028204E0028A4BF6FF731A400282B8
:1011F0007047C1F308028280704701468888C0F3B7
:1012000008007047818941F0010181817047028B9C
:10121000D2B20283028B42EA012202837047028B20
:1012200002F47F420283028B0A430283704721B19A
:10123000828A42F02002828204E0828A4FF6DF73C3
:101240001A408282704721B1828A42F01002828263
:1012500004E0828A4FF6EF731A408282704721B110
:10126000828A42F00802828204E0828A4FF6F77393
:101270001A4082827047828A4FF6FB731A4082823C
:10128000828A0A438282704721B1828A42F0020236
:10129000828204E0828A4FF6FD731A408282704790
:1012A00002460020B1F5007F00D100BF13880B403B
:1012B0000BB1012000E00020704701F40072B2F58C
:1012C000007F00D100BFCA430280704770B502465C
:1012D000002400230025002040F66A16B14200D108
:1012E00000BFC1F3421501F01F03012606FA03F304
:1012F000012D02D19689334006E0022D02D1168AD3
:10130000334001E0968A33400C12012606FA04F4B9
:101310001688344013B10CB1012000E0002070BDEC
:1013200010B50022002340F66A14A14200D100BF8C
:101330000A1201249440A3B2DC43048010BD0000D3
:10134000003801400044004000480040004C00408C
:1013500000500040064C074D06E0E06840F00103F5
:1013600094E8070098471034AC42F6D3FEF7E4FE49
:10137000BC140008DC140008014A024900F013B84C
:10138000130500080400002002E008C8121F08C16D
:10139000002AFAD170477047002001E001C1121FF6
:1013A000002AFBD170472DE9F04116460F4604464E
:1013B000002503E03946B047641C6D1C20780028E6
:1013C000F8D12846BDE8F0810A0D2B2A2A2A2A2ABC
:1013D0002A2A2A2A2A2A2A2A2A2A2A2A2A2A2A2077
:1013E000BED8D5F3BFC6BCBCBFAAB7A2B0E520200B
:1013F0002A2A2A2A2A2A2A2A2A2A2A2A2A2A2A2A4D
:101400002A2A2A2A2B0A0D7C202020202020202076
:10141000202020202020202020BED8D5F3BFC6BC0D
:10142000BCBFAAB7A2B0E5CAD4D1E9B3CCD0F220F0
:1014300020202020202020202020202020202020AC
:10144000207C0A0D7C20202020202020202020200D
:1014500020202020202020555341525420D2ECB28D
:10146000BDCDA8D0C5CAD4D1E9202020202020207D
:101470002020202020202020202020207C0A0D2B2E
:101480002D2D2D2D2D2D2D2D2D2D2D2D2D2D2D2D8C
:101490002D2D2D2D2D2D2D2D2D2D2D2D2D2D2D2D7C
:1014A0002D2D2D2D2D2D2D2D2D2D2D2D2D2D2D2D6C
:1014B0002D2D2D2D2D2D2D2B0A0D0000DC140008B7
:1014C000000000202000000088130008FC14000821
:1014D00020000020680400009813000801000000AC
:1014E00000000000000000000000010203040102EF
:0C14F000030406070809020406080000B7
:0400000508000131BD
:00000001FF
