:020000040800F2
:10000000000400207B020008890200088B0200081F
:100010008D0200088F020008910200080000000015
:100020000000000000000000000000009302000833
:100030009502000800000000970200083B0300083A
:100040009B0200089B0200089B0200089B0200081C
:100050009B0200089B0200089B0200089B0200080C
:100060009B0200089B0200089B0200089B020008FC
:100070009B0200089B0200089B0200089B020008EC
:100080009B0200089B0200089B0200089B020008DC
:100090009B0200089B0200089B0200089B020008CC
:1000A0009B0200089B0200089B0200089B020008BC
:1000B0009B0200089B0200089B0200089B020008AC
:1000C0009B0200089B0200089B0200089B0200089C
:1000D0009B02000841050008EB0400089504000895
:1000E0009B0200089B0200089B0200089B0200087C
:1000F0009B0200089B0200089B0200089B0200086C
:100100009B0200089B0200089B0200089B0200085B
:100110009B0200089B0200089B0200089B0200084B
:100120009B0200089B0200089B0200089B0200083B
:10013000DFF80CD001F0C4F800480047F1060008D1
:10014000280600200CB50020019000904648006869
:1001500040F480304449086000BF4348006800F420
:10016000003000900198401C0190009818B9019847
:10017000B0F5A06FF1D13C48006800F4003010B138
:100180000120009001E0002000900098012843D158
:100190003648006840F0100034490860084600689E
:1001A00020F0030008600846006840F00200086084
:1001B0002D4840682C494860084640684860084619
:1001C000406840F4806048600846406820F47C1035
:1001D00048600846406840F4E810486008460068F7
:1001E00040F08070086000BF1F48006800F0007099
:1001F0000028F9D01C48406820F003001A494860E4
:100200000846406840F00200486000BF1648406859
:1002100000F00C000828F9D10CBD10B5FFF792FFD3
:1002200010BD10B51048006840F001000E4908608C
:10023000084640680E4908400B4948600846006877
:100240000C490840084908600846006820F48020EE
:1002500008600846406820F4FE0048604FF41F0024
:100260008860FFF7DAFF10BD001002400020024056
:100270000000FFF8FFFFF6FE704708488047084976
:1002800081F3088807480047FEE7FEE7FEE7FEE740
:10029000FEE7FEE7FEE7FEE7FEE7FEE7790200087D
:1002A000280600203101000870B504464FF0FF30E9
:1002B00072B60D881688B54208D00D88605D0D882D
:1002C0006D1C95FBF3F603FB16550D8062B670BDF1
:1002D000F0B50446059E1888401C90FBF6F706FB17
:1002E000170085B272B61088A84203D162B64FF0EB
:1002F000FF30F0BD18880C541D8062B60020F8E76E
:1003000030B502460B464FF6FF70002112E0555CF7
:10031000684000240AE000F0010525B140104AF2CF
:100320000105684000E04010651CACB2082CF2DB0F
:100330004D1CA9B29942EADB30BDF7480068401C69
:10034000F54908607047F44A116800BFF24A126824
:10035000521A8242FAD3704710B50446012000F0C9
:10036000CDF900BF8021ED4800F050FF0028F9D002
:100370002146EA4800F0F3FE00BF4021E74800F0C4
:1003800045FF0028F9D0002000F0B8F910BD10B5E5
:10039000044600BF8021E24800F038FF0028F9D071
:1003A0002146DF4800F0DBFE10BD08B50121112019
:1003B00000F050FD0121880400F059FD0121D948C9
:1003C00000F06DFB4FF48060ADF8000018208DF850
:1003D000030003208DF802006946D34800F08EFA2E
:1003E0004FF40060ADF8000004208DF8030069466A
:1003F000CD4800F083FA0121052000F02BFD0121FA
:10040000480400F034FD0420ADF8000018208DF8F9
:10041000030003208DF802006946C44800F06EFA1C
:100420000820ADF8000004208DF803006946BF489D
:1004300000F064FA0220ADF8000010208DF80300EF
:1004400003208DF802006946B84800F057FA0020F2
:1004500000F054F908BD7FB505460C460094002015
:10046000ADF80400ADF80600ADF80800ADF80C00DA
:100470000C20ADF80A006946284600F092FD0122E2
:1004800040F22551284600F009FE0121284600F0DF
:10049000F9FD7FBD38B50821A14800F0B7FE10B1C5
:1004A0009F4800F060FE40F225519D4800F0C4FED8
:1004B00060B19B4800F057FEC4B24FF480709C4B73
:1004C0009C4A9D4900902046FFF702FF4FF4B0710F
:1004D000934800F0DBFE4FF41871914800F0D6FE0F
:1004E00028218F4800F0D2FE38BD38B508218B484E
:1004F00000F08CFE10B1894800F035FE40F2255125
:10050000864800F099FE60B1844800F02CFEC4B229
:100510004FF48070894B8A4A8A4900902046FFF741
:10052000D7FE4FF4B0717D4800F0B0FE4FF4187163
:100530007A4800F0ABFE2821784800F0A7FE38BDCD
:1005400010B540F22551804800F076FE10B17E488B
:1005500000F009FE4FF458717B4800F097FE4FF40D
:100560001871794800F092FE4FF4B071764800F0AF
:100570008DFE2821744800F089FE10BD08B50021C9
:100580004FF0006000F023F94FF4A06000F0E8F8AD
:1005900026208DF8000000208DF8010001208DF844
:1005A00002008DF80300684600F0DFF827208DF880
:1005B000000000208DF8010002208DF802000120CB
:1005C0008DF80300684600F0D0F825208DF8000073
:1005D00003208DF801008DF8020001208DF8030042
:1005E000684600F0C2F808BD70B5FFF71AFE57481C
:1005F00000684FF47A72B0FBF2F1B1F1807F01D361
:1006000001201DE021F07F40401E4FF0E0225061AC
:1006100050170F22002807DA13071D0E4C4B00F06D
:100620000F04241F1D5503E013071C0E494B1C54D7
:1006300000BF00204FF0E0229061072010610020F1
:1006400008B100BFFEE7FFF799FFFFF7AEFE4FF4DA
:1006500016513248FFF7FFFE4FF416513048FFF7AE
:10066000FAFE70BD2DE9F0414FF48073304A3149F4
:100670003148FFF719FE0746781C50B3364800781A
:10068000062807DA344802780078401C324B18708C
:10069000324887543048007806281AD106212F485E
:1006A000FFF72EFE0646AA20FFF756FE002505E0BE
:1006B0002A49485DFFF750FE681CC5B2062DF7DBDE
:1006C000F0B2FFF749FE300AFFF746FE002022494C
:1006D00008704FF48073194A19491A48FFF7E4FD6E
:1006E0000446601C10B1E0B2FFF751FEBDE8F08196
:1006F000FFF77AFF01E0FFF7B5FFFCE710B504460E
:1007000024B10221094800F0A6F903E002210748BC
:1007100000F0A3F910BD00000800002000440040D4
:100720000048004010001400001001400008014083
:100730000200002000000020280000200600002009
:1007400004000020280100200038014004130008A4
:1007500018ED00E000E400E0120000200C00002092
:1007600031490143314A1160704770B500210023BF
:100770000F22C47804B32D4C246804F4E064C4F55B
:10078000E064210AC1F10403CA40447804FA03F189
:100790008478144021430901254C0678A15504783A
:1007A00004F01F050124AC4005786D11AD0005F182
:1007B000E025C5F8004109E0047804F01F05012494
:1007C000AC401C4D0678761145F8264070BD1A4A9B
:1007D0000A400243154B1B1F1A60704739B1134A78
:1007E000121D12680243114B1B1D1A6006E00F4ACE
:1007F000121D126882430D4B1B1D1A60704704289E
:1008000008D14FF0E021096941F004014FF0E022E6
:10081000116107E04FF0E021096921F004014FF078
:10082000E0221161704700000000FA050CED00E0C5
:1008300000E400E080E100E080FFFF1F10B5044607
:10084000C448844208D10121042000F01DFB00218E
:10085000042000F019FB46E0BF48844208D1012182
:10086000082000F011FB0021082000F00DFB3AE009
:10087000BA48844208D10121102000F005FB002174
:10088000102000F001FB2EE0B548844208D1012180
:10089000202000F0F9FA0021202000F0F5FA22E0F3
:1008A000B048844208D10121402000F0EDFA002137
:1008B000402000F0E9FA16E0AB48844208D101215B
:1008C000802000F0E1FA0021802000F0DDFA0AE04B
:1008D000A648844207D10121801500F0D5FA0021F5
:1008E000A01500F0D1FA10BD10B50121084600F0A6
:1008F000CBFA0021012000F0C7FA10BD2DE9F0412C
:10090000024600250026002000230024002791F83D
:1009100003C00CF00F0591F803C00CF0100CBCF1F3
:10092000000F03D091F802C04CEA050591F800C011
:10093000BCF1000F31D0146800202BE04FF0010C07
:100940000CFA00F3B1F800C00CEA03069E4220D175
:1009500083004FF00F0C0CFA03F7BC4305FA03FCBD
:100960004CEA040491F803C0BCF1280F06D14FF003
:10097000010C0CFA00FCC2F814C00AE091F803C0A4
:10098000BCF1480F05D14FF0010C0CFA00FCC2F885
:1009900010C0401C0828D1D31460B1F800C0BCF1CD
:1009A000FF0F34DD546800202EE000F1080C4FF0FA
:1009B000010808FA0CF3B1F800C00CEA03069E42E5
:1009C00021D183004FF00F0C0CFA03F7BC4305FA5A
:1009D00003FC4CEA040491F803C0BCF1280F05D1D4
:1009E00000F1080C08FA0CF8C2F8148091F803C062
:1009F000BCF1480F07D100F1080C4FF0010808FACC
:100A00000CF8C2F81080401C0828CED35460BDE812
:100A1000F0814FF6FF710180022181700421C170C5
:100A200070470246002093680B400BB1012000E0A4
:100A3000002070470146886880B270470246002057
:100A4000D3680B400BB1012000E000207047014645
:100A5000C86880B2704701617047416170470AB150
:100A6000016100E041617047C16070474FF480321E
:100A70000A438261816182618269826970470246AC
:100A800000203B4B18684FF68073184040EA021074
:100A90000843374B186070473649C8617047F0B556
:100AA0000A460023002400210025314E7168C0F35E
:100AB000034583B200F44016B6F5401F08D121F07B
:100AC00070612B4E766826F07066294F7E6012E0CA
:100AD00000F48016B6F5801F06D1032606FA05F449
:100AE000A14341F0706106E0460D360103FA06F6B7
:100AF000B14341F0706122B1460D360103FA06F6AA
:100B000031431B4E7160F0BD30B500228B071C0FC6
:100B10000F2303FA04F2164B08338C1053F82430D9
:100B20009343134C08348D1044F8253023468C1021
:100B300053F824308C07240F00FA04F423430C4CA0
:100B400008348D1044F8253030BD0A49DC31086086
:100B50007047000000080140000C014000100140F7
:100B60000014014000180140001C01400020014019
:100B70000000014000002042DF48006840F0010012
:100B8000DD49086008464068DC490840DA494860A9
:100B900008460068DA490840D749086008460068F6
:100BA00020F4802008600846406820F4FE00486079
:100BB0004FF41F0088607047CF49096821F48031E5
:100BC000CD4A11601146096821F480211160B0F509
:100BD000803F03D0B0F5802F0ED106E0C6490968EA
:100BE00041F48031C44A116007E0C349096841F407
:100BF000A021C14A116000E000BF00BF704710B5DE
:100C000001460022002300204A11012A02D1BA4CD9
:100C1000236806E0022A02D1B74C236A01E0B64CF1
:100C2000636A01F01F02012494401C400CB10120B2
:100C300000E0002010BD38B5002000900024002501
:100C400000BF3120FFF7DBFF05460098401C0090F5
:100C50000098B0F5A06F01D0002DF2D03120FFF741
:100C6000CEFF08B1012400E00024204638BD014633
:100C70000020A14A106820F0F80040EAC10010608E
:100C80007047A04908607047024600209A4B586898
:100C900020F47C1042EA01031843974B58607047D8
:100CA00098490866704701460020934A506820F032
:100CB00003000843506070478F48406800F00C0004
:100CC0007047014600208C4A506820F0F00008432D
:100CD0005060704701460020874A506820F4E06069
:100CE00008435060704701460020834A506820F452
:100CF000605040EAC1005060704729B17E4A527A84
:100D000002437D4B5A7204E07B4A527A82437A4B0B
:100D10005A7270477B49D8310860704701460020FD
:100D2000754A506820F440400843506070470021E5
:100D3000714A20321170704A82F82010012802D0C6
:100D400004280AD104E001216B4A2032117005E029
:100D50000521694A2032117000E000BF00BF7047D2
:100D60006949086070476449096A0143624A11622F
:100D70007047654944390860704730B5002100224A
:100D8000002400235C4D6D6805F00C0121B104299D
:100D900005D0082923D105E05C4D056022E05B4DBC
:100DA00005601FE0544D6D6805F47012524D6D687A
:100DB00005F48034022505EB92421CB9544D55438D
:100DC00005600BE04C4D6D6805F400351DB1504DCC
:100DD0005543056002E04D4D5543056002E04B4D23
:100DE000056000BF00BF444D6D6805F0F0010909C2
:100DF000484D6B5C0568DD4045603F4D6D6805F40E
:100E0000E061090A434D6B5C4568DD4085603A4D01
:100E10006D6805F46051C90A3E4D6B5C4568DD4064
:100E2000C560354D6D6805F44041890B3A4D6B5CEA
:100E3000C568B5FBF3F5056130BD29B12E4A52698D
:100E400002432D4B5A6104E02B4A526982432A4BDC
:100E50005A61704729B1284A92690243264B9A6128
:100E600004E0254A92698243234B9A61704729B175
:100E7000214AD2690243204BDA6104E01E4AD2695A
:100E800082431D4BDA61704729B11B4AD268024385
:100E9000194BDA6004E0184AD2688243164BDA60D4
:100EA000704729B1144A12690243134B1A6104E0D6
:100EB000114A12698243104B1A6170471249403936
:100EC000086070470F49C86470470B49C871704784
:100ED0000948406A40F080700749486270470146FF
:100EE0000020054A92680A400AB1012000E0002073
:100EF0007047014988727047001002400000FFF8F7
:100F0000FFFFF6FE000042428004424200127A00D7
:100F100000093D00130000202300002010B5044606
:100F2000E248844209D101218803FFF7ADFF002187
:100F30004FF48040FFF7A8FF32E0DD48844209D13A
:100F400001214804FFF7ADFF00214FF40030FFF707
:100F5000A8FF25E0D748844209D101218804FFF782
:100F6000A0FF00214FF48020FFF79BFF18E0D2483C
:100F7000844209D10121C804FFF793FF00214FF4F7
:100F80000020FFF78EFF0BE0CC48844208D10121FE
:100F90000805FFF786FF00214FF48010FFF781FF5F
:100FA00010BD2DE9F04786B005460E460024A24646
:100FB00000BF00BF0027B08900B100BF2F462C8AB8
:100FC0004CF6FF700440F08804432C82AC894EF646
:100FD000F3100440B0883189084371890843044301
:100FE000AC81AC8A4FF6FF400440B0890443AC8228
:100FF00001A8FFF7C2FEAD48874202D1DDF810A07C
:1010000001E0DDF80CA00AEBCA0000EB0A10316821
:101010008900B0FBF1F86420B8FBF0F0040120096E
:10102000642101FB1089322000EB0910B0FBF1F0C4
:1010300000F00F0004432C8106B0BDE8F0874FF4A8
:101040001651016000218180C18001810C21418104
:1010500000218181704710B502460020108A4FF2AE
:10106000FF0318400B884C8823438C882343CC888B
:1010700023431843108210BD0021018041808180EC
:10108000C180704721B1828942F40052828104E01C
:1010900082894DF6FF731A4082817047F0B503468E
:1010A000002400260025002040F66A17B94200D12E
:1010B00000BF1846C1F3421401F01F06012707FACA
:1010C00006F5012C01D10C3004E0022C01D11030C6
:1010D00000E014301AB107682F43076002E0076888
:1010E000AF430760F0BD1AB1838A0B43838202E0ED
:1010F000838A8B4383827047028A4FF6F0731A40CB
:101100000282028A0A430282704782894FF2FF7389
:101110001A40828182890A438281704721B1828983
:1011200042F00202828104E082894FF6FD731A4088
:1011300082817047028A4FF6DF731A400282028A68
:101140000A430282704721B1028A42F4804202823D
:1011500004E0028A4BF6FF731A4002827047C1F323
:1011600008028280704701468888C0F308007047F3
:10117000818941F0010181817047028BD2B20283E3
:10118000028B42EA012202837047028B02F47F4203
:101190000283028B0A430283704721B1828A42F0A4
:1011A0002002828204E0828A4FF6DF731A40828234
:1011B000704721B1828A42F01002828204E0828A62
:1011C0004FF6EF731A408282704721B1828A42F053
:1011D0000802828204E0828A4FF6F7731A40828204
:1011E0007047828A4FF6FB731A408282828A0A43D2
:1011F0008282704721B1828A42F00202828204E038
:10120000828A4FF6FD731A408282704702460020A0
:10121000B1F5007F00D100BF13880B400BB1012056
:1012200000E00020704701F40072B2F5007F00D1A9
:1012300000BFCA430280704770B5024600240023F5
:101240000025002040F66A16B14200D100BFC1F36C
:10125000421501F01F03012606FA03F3012D02D106
:101260009689334006E0022D02D1168A334001E010
:10127000968A33400C12012606FA04F4168834408C
:1012800013B10CB1012000E0002070BD10B50022A8
:10129000002340F66A14A14200D100BF0A120124C3
:1012A0009440A3B2DC43048010BD0000003801402C
:1012B0000044004000480040004C00400050004006
:1012C000064C074D06E0E06840F0010394E8070093
:1012D00098471034AC42F6D3FEF72EFF18130008DF
:1012E0003813000802E008C8121F08C1002AFAD10A
:1012F00070477047002001E001C1121F002AFBD196
:101300007047000000A24A0400A24A0400A24A0456
:101310000051250200A24A043813000800000020F2
:1013200028000000E41200086013000828000020D4
:1013300000060000F4120008000000000000000099
:10134000000000000000000000000000000000019C
:101350000203040102030406070809020406080048
:0400000508000131BD
:00000001FF
